:020000040800F2
:100000000000022041050008000000000000000080
:100010003D0500083D0500083D0500080000000002
:100020000000000000000000000000003D05000886
:100030003D050008000000003D050008890100089A
:100040003D0500083D0500083D0500083D05000888
:100050003D0500083D0500083D0500083D05000878
:100060003D0500083D0500083D0500083D05000868
:100070003D0500083D0500083D0500083D05000858
:100080003D0500083D0500083D0500083D05000848
:100090003D0500083D0500083D0500083D05000838
:1000A0003D0500083D0500083D0500083D05000828
:1000B0003D0500083D0500083D0500083D05000818
:1000C0003D0500083D0500083D0500083D05000808
:1000D0003D0500083D0500083D05000889040008AD
:1000E0003D0500083D0500083D0500083D050008E8
:1000F0003D0500083D0500083D0500083D050008D8
:100100003D0500083D0500083D0500083D050008C7
:100110003D0500083D0500083D0500083D050008B7
:100120003D0500083D0500083D0500083D050008A7
:100130003D0500083D0500083D0500083D05000897
:100140003D0500083D0500083D0500083D05000887
:100150003D0500083D0500083D0500083D05000877
:100160003D0500083D0500083D0500083D05000867
:100170003D0500083D0500083D0500083D05000857
:080180003D0500083D050008E3
:1001880000F0E4BB82B00549019008680A68019B49
:10019800121A9A42FAD302B0704700BF1801002021
:1001A8000C4A0D4B1268A3FB0212920C013AB2F1F1
:1001B800807F10B40CD2094B09485A60F02480F8AB
:1001C80023400021072299605DF8044B1A607047AC
:1001D800FEE700BF1000002083DE1B4310E000E0B4
:1001E80000ED00E000B5012183B0042000F0B4FE6A
:1001F800684601F0AFF801224FF4404369460448CD
:100208008DF80420009301F047F803B05DF804FB73
:1002180000080240F0B54FF4802089B0274F284EDF
:10022800012100F0BDFE0220012100F095FE00240E
:100238000223012538464FF4406202A98DF80C309C
:100248008DF80D3002928DF80E408DF80F5001F0A8
:1002580023F838460A21072201F0BCF838460B215A
:10026800072201F0B7F80C2330464FF4165204A9C0
:10027800ADF81A300492ADF81440ADF81640ADF858
:100288001840ADF81C4001F03FF92A46304640F2CC
:10029800255101F099FA272301A88DF804308DF82B
:1002A80005408DF806408DF8075000F04BFC3046AD
:1002B800294601F0AFF909B0F0BD00BF00040240C3
:1002C8000048004070B50D4604464FF400410E4802
:1002D80001F070F82B7883B12046402101F092FAA2
:1002E8000028F9D02E46204616F8011B01F0C6F961
:1002F8002B786B780BB13546EEE703484FF4004195
:10030800BDE8704001F058B8000802400FB410B5BD
:10031800C2B044AA02A852F8041B019201F0CAFD17
:1003280002A904460448FFF7CDFF204642B0BDE8C5
:10033800104004B0704700BF0048004070B5224824
:10034800AAB000F0F7FAA5220021684601F0C8FA21
:10035800684600F083FBA521684600F0CFFB0646FF
:100368004FF4FA6000F0E6FA4AF655211748FFF70D
:10037800CDFF1748FFF7CAFF0DF1FF3429AD14F878
:10038800011F1448FFF7C2FF1148FFF7BFFFAC4237
:10039800F5D1A5210F48FFF7B9FF0D48FFF7B6FFC4
:1003A80031460A48FFF7B2FF0948FFF7AFFF4AF6A0
:1003B80055210648FFF7AAFF0748FFF7A7FF074898
:1003C80000F0B8FA2AB070BDA0252600782C0008E5
:1003D800802C0008842C0008A02C000880841E00B3
:1003E800704700BF70B5044682B0204800F0A2FAFA
:1003F8002046694600F022FB0521684600F07EFB96
:100408004AF6552106461A48FFF780FF1948FFF7B4
:100418007DFF21461848FFF779FF1648FFF776FF5A
:100428000DF1FF3401AD14F8011F1348FFF76EFFFB
:100438001048FFF76BFFAC42F5D105210E48FFF7D6
:1004480065FF0C48FFF762FF31460948FFF75EFF7A
:100458000848FFF75BFF4AF655210548FFF756FFA6
:100468000648FFF753FF02B070BD00BF00093D000A
:10047800782C0008802C0008842C0008A02C000888
:1004880010B5264C40F22551204601F0C5F930B987
:1004980023484FF48041BDE8104000F08DBF20484C
:1004A8004FF4804100F086FFA3881E4ADBB20A2B76
:1004B80002D0117804290FD91B4B19780020312953
:1004C800107026D01A78322A11D01B78332BDFD13E
:1004D800164BFF221A70DBE7134C481C635410704C
:1004E8004FF480410E48BDE8104000F065BF5A78CF
:1004F8002B2AEAD19C78D8780D490C4AA4F130030C
:1005080003EB8303303800EB4300022308701370B9
:10051800BEE7064B01221A70BAE700BF0048004048
:1005280000080240F0000020300100201D010020DA
:100538001C010020FEE700BF684620F007018D4639
:1005480019B51349134B99420BD2C843184420F0EC
:100558000300114C04300023E258CA50043383428C
:10056800FAD10E4B0E4A93420AD2D943114421F0D4
:10057800030119440022043B43F8042F8B42FBD1AA
:1005880000F010F801F076F9BDE81940854670478B
:1005980000000020F0000020502D0008F00000208E
:1005A80048010020354B36481968002241F0010106
:1005B80019609A60196821F0847121F480311960FA
:1005C8005860196882B021F480211960DA600092BD
:1005D80001921A6842F480321A601A4603E0009BBE
:1005E800B3F5A04F09D0136803F400330193009BBF
:1005F80001330093019B002BF1D0204B1B6813F4AF
:10060800003318BF01230193019B012B05D01D4B1B
:100618004FF000629A6002B07047184B1A4A186C83
:100628001A4940F080501864106840F44040106047
:100638009A689A609A6842F400429A609A6842F40A
:10064800A0529A6059601A6842F080721A6019467E
:100658000B680A4A9B01FBD50D4B40F205711960E6
:10066800936823F003039360936843F00203936055
:10067800936803F00C03082BFAD1C8E7003802404E
:100688001030002400ED00E00070004008544007DE
:10069800003C0240154B9A6802F00C02042A23D051
:1006A800082A09D0124A1149124B8968C1F303116B
:1006B800595CCA401A617047586859685B684202B9
:1006C8004CBF0D4A0A4A01F03F01C3F38813B2FB3D
:1006D800F1F202FB03F2054B5B68C3F301430133FC
:1006E8005B00B2FBF3F2DEE7034ADCE700380240C6
:1006F8000024F4000000002000127A00114B9842F8
:1007080010D0114B984211D0104B984212D0104B78
:10071800984213D00F4B984200D070471020012107
:1007280000F01ABC0120014600F016BC022001218D
:1007380000F012BC0420012100F00EBC08200121A9
:1007480000F00ABC00000240000402400008024019
:10075800000C02400010024038B50C460546FFF771
:10076800CDFF064B01222846002519461C601D7145
:100778005A71DA71BDE8384000F08EBD3C010020A6
:1007880030B472B9124C01252160A27165712571CE
:10079800CBB1012B17D0022B15D00D4930BC00F07E
:1007A8007BBD012AF9D10A4A02250024116055713E
:1007B80014711BB1012B01D0022BEED10449D37166
:1007C80030BC00F069BDE371014930BC00F064BD84
:1007D8003C0100202DE9F04107460E46154600244D
:1007E80003E0522C10D000F0A5F83846314600F04E
:1007F800CDFDA8425FFA84F84FF0010004F101042E
:10080800EFD04046BDE8F0810020BDE8F08100BF90
:100818002DE9F0410E4694B0114680463046154603
:1008280000F0C8FD364800F085F80022134630462F
:100838002946FFF7A5FF2946304600F0BDFD44F6DE
:10084800206000F077F82946304600F0B3FD1E20FE
:1008580000F070F80122134630462946FFF790FF52
:10086800294600223046FFF7B5FF304629460122C7
:10087800FFF7B0FF6C4614AF294600223046FFF759
:10088800A9FF2946207001223046FFF7A3FF023452
:1008980004F8010CBC42EFD100AB002210E0A9B172
:1008A80018F800406400E4B21E2902F1010288BF72
:1008B80044F00104282A08F8004003F1020309D093
:1008C8001C785978D0B2C008002CE8D1FE2014B0AA
:1008D800BDE8F08198F8014098F8001098F80220D7
:1008E80098F8033098F8040021440A441344DBB212
:1008F800984214BFFF20012014B0BDE8F08100BF6A
:1009080090D00300014B1868704700BFF400002026
:1009180082B0034B0190019A1A6002B0704700BF81
:10092800F4000020024A1368002BFCD1704700BF76
:10093800F400002082B0044A0190019B5360536880
:10094800002BFCD102B07047F4000020064B5A6817
:1009580012B15A68013A5A601A68034B12B11A6800
:10096800013A1A60704700BFF40000200C4A0D4B92
:100978001268A3FB0212920C013AB2F1807F10B404
:100988000CD2094B09485A60F02480F82340002112
:10099800072299605DF8044B1A607047FEE700BFB4
:1009A8001000002083DE1B4310E000E000ED00E0B3
:1009B8004A1E214B042933F81220028023D94A1FEA
:1009C800072A1DD9A1F10D02012A22D9A1F10F028E
:1009D800012A21D9A1F11102012A20D9A1F113027A
:1009E800072A13D9A1F11B02012A1BD91D291CD0E2
:1009F8001E291DD01F3901299CBF5B6E43607047BB
:100A08005B6C436070471B6C436070475B6D436071
:100A180070479B6C43607047DB6C436070471B6D8D
:100A2800436070479B6D43607047DB6D4360704760
:100A38001B6E4360704700BF1400002010B50346CA
:100A480082B00C4668461946FFF7B2FF2046019966
:100A5800BDF80020FFF7DCFE02B010BD38B5054632
:100A68000124204601342946E4B2FFF7E7FF212C90
:100A780005F10505F5D138BD00B583B001466846D6
:100A8800FFF796FF0198BDF80010FFF765FE0020FC
:100A980003B05DF804FB00BF10B501242046013403
:100AA800E4B2FFF7E9FF222CF8D110BD30B409B346
:100AB80001398DB2013505444FF6FF7310F8012B4B
:100AC800082183EA0204E4074FEA530348BF83F48A
:100AD800815301F1FF3148BF83F0010311F0FF0199
:100AE8004FEA5202EDD1A842E8D1DB4358BA80B2AE
:100AF80030BC7047084630BC704700BF002910B4AE
:100B080011DD0A4C0144002310F8012B82EA13225C
:100B1800884234F8122082EA03239BB2F4D11846A3
:100B28005DF8044B70470023F9E700BF782A0008F6
:100B380040F0BF60024B40F40030D860704700BFFF
:100B480000ED00E0C378F0B463B90378194A590995
:100B5800203103F01F03012000FA03F342F821308B
:100B6800F0BC7047144B4778DA68857803781149E8
:100B7800D243C2F30222C2F104040F26E4B207FAF8
:100B880004F446FA02F2E4B22A40224303F1604335
:100B980003F561431201D2B283F8002303780120E0
:100BA80003F01F025B0900FA02F241F82320F0BCAF
:100BB800704700BF00E100E000ED00E021F0604177
:100BC80021F07F01014B08439860704700ED00E079
:100BD800044B1A6919B922EA0000186170471043DA
:100BE8001861704700ED00E0044B1A6804280CBF38
:100BF80042F0040222F004021A60704710E000E09C
:100C08000F4B10481968002241F0010130B41960F7
:100C18009A6019680C4D0D4C21F0A85121F410214F
:100C280019605D60C3F88440C3F88800196821F42E
:100C38008021196030BCDA60C3F88C20704700BF8F
:100C4800003802400030002410300024003000201A
:100C5800024B00221A701870704700BF0238024019
:100C680082B000230B4A019313689B030CD4019BA9
:100C780001330193019BB3F5A04FF5D1054B1868DB
:100C8800C0F3404002B07047019B01330193019BC0
:100C9800F4E700BF00380240034B1A6822F0F8025C
:100CA80042EAC0001860704700380240014B1860E3
:100CB800704700BF00004742064B002201281A7007
:100CC8001A7005D0042802D105221A70704770479F
:100CD8001870704770380240014B1860704700BFA9
:100CE800800E474230B4029C064D40EA04605B081F
:100CF8000143013B41EA821242EA03436B6030BC84
:100D0800704700BF00380240014B1860704700BFB1
:100D1800600047420907034B41EA8010C3F884008A
:100D2800704700BF00380240014B1860704700BF91
:100D380068004742120742EA0161034B41EA80100A
:100D4800C3F88800704700BF00380240014B1860A4
:100D5800704700BF70004742014B1860704700BFE2
:100D68004C004742034B9A6822F0EC621143084357
:100D78009860704700380240034B9A6822F0784226
:100D8800114308439860704700380240034B9A6843
:100D980022F0030210439860704700BF00380240F9
:100DA800024B986800F00C00704700BF0038024002
:100DB800034B9A6822F0F00210439860704700BF16
:100DC80000380240034B9A6822F4E05210439860BE
:100DD800704700BF00380240034B9A6822F4604213
:100DE80042EAC00098607047003802401F4A936882
:100DF80003F00C03042B10B41BD0082B1CD01C4B85
:100E080003601A491B4A8C68C4F30314145DE34059
:100E180043608C68C4F38224145D23FA04F484606C
:100E280089685DF8044BC1F34231525CD340C3601A
:100E38007047114B0360E4E75468516852686302D5
:100E48004CBF0D4B0A4B01F03F01C2F38812B3FBB4
:100E5800F1F303FB02F3054A5268C2F3014201327F
:100E68005200B3FBF2F30360CBE700BF0038024047
:100E78000024F4007C00002000127A0000F4407383
:100E8800B3F5407F09D1084A916820F0704321F4F6
:100E9800F81123F440730B439360034B1A6FC0F3AC
:100EA8000B0010431867704700380240014B186068
:100EB800704700BF3C0E4742014B1860704700BFA7
:100EC800400E4742014B1860704700BF5C01474223
:100ED800044BD3F88C20013822F01F020243C3F8D8
:100EE8008C20704700380240054BD3F88C2001381D
:100EF80022F4F85242EA0022C3F88C20704700BF5F
:100F080000380240044BD3F88C2022F440121043DE
:100F1800C3F88C00704700BF00380240044BD3F878
:100F28008C2022F440021043C3F88C00704700BFA5
:100F380000380240044BD3F88C2022F4403210438E
:100F4800C3F88C00704700BF00380240014B18609E
:100F5800704700BFE0114742044B1A6B19B922EAE7
:100F68000000186370471043186370470038024048
:100F7800044B5A6B19B922EA0000586370471043B2
:100F88005863704700380240044B9A6B19B922EA3B
:100F98000000986370471043986370470038024018
:100FA800044B1A6C19B922EA000018647047104300
:100FB8001864704700380240044B5A6C19B922EA89
:100FC8000000586470471043586470470038024066
:100FD800044B1A6919B922EA0000186170471043D6
:100FE8001861704700380240044B5A6919B922EA5F
:100FF800000058617047104358617047003802403C
:10100800044B9A6919B922EA0000986170471043A5
:101018009861704700380240044B1A6A19B922EAED
:101028000000186270471043186270470038024089
:10103800044B5A6A19B922EA0000586270471043F3
:101048005862704700380240044B1A6D19B922EAF9
:101058000000186570471043186570470038024053
:10106800044B5A6D19B922EA0000586570471043BD
:101078005865704700380240044B9A6D19B922EA46
:101088000000986570471043986570470038024023
:10109800044B1A6E19B922EA00001866704710430B
:1010A8001866704700380240044B5A6E19B922EA94
:1010B8000000586670471043586670470038024071
:1010C800044B1A7819B922EA0000187070471043C7
:1010D800187070470D3802404309012B0BD0022BC2
:1010E800094B0CBF1B6F5B6F00F01F0023FA00F069
:1010F80000F001007047044B1B6800F01F0023FA42
:1011080000F000F00100704700380240024B5A6FAF
:1011180042F080725A67704700380240034BDB6820
:1011280018420CBF00200120704700BF0038024061
:10113800014B1870704700BF0E38024008B54B4B82
:1011480098422AD04A4B984231D04A4B984238D0DC
:10115800494B98423FD0494B984246D0484B984219
:101168004DD0484B984254D0474B98425BD0474BA0
:10117800984262D0464B98426BD0464B984200D07A
:1011880008BD4FF480600121FFF722FF4FF4806013
:101198000021BDE80840FFF71BBF01200146FFF70B
:1011A80017FF01200021BDE80840FFF711BF02200A
:1011B8000121FFF70DFF02200021BDE80840FFF7DD
:1011C80007BF04200121FFF703FF04200021BDE829
:1011D8000840FFF7FDBE08200121FFF7F9FE0820AF
:1011E8000021BDE80840FFF7F3BE10200121FFF7FA
:1011F800EFFE10200021BDE80840FFF7E9BE2020DF
:101208000121FFF7E5FE20200021BDE80840FFF797
:10121800DFBE40200121FFF7DBFE40200021BDE8B2
:101228000840FFF7D5BE80200121FFF7D1FE8020BE
:101238000021BDE80840FFF7CBBE4FF480700121C4
:10124800FFF7C6FE4FF480700021BDE80840FFF7A5
:10125800BFBE4FF400700121FFF7BAFE4FF40070D3
:101268000021BDE80840FFF7B3BE00BF0000024000
:101278000004024000080240000C02400010024036
:101288000014024000180240001C024000200240E6
:10129800002402400028024000222DE9F0071346EE
:1012A8000E6801274FF0030804E00133102B02F108
:1012B80002022CD007FA03F404EA0605A542F4D189
:1012C800D0F8009091F804C008FA02F4E44304EA64
:1012D8000909C0F80090D0F800900CFA02FA0CF155
:1012E800FF3C4AEA0909BCF1010FC0F8009011D986
:1012F800C56891F807C02C40C460C5680CFA02F4B0
:1013080001332C43102BC46002F10202D2D1BDE894
:10131800F0077047D0F808A091F8059091F806C03A
:1013280004EA0A0AC0F808A0D0F808A009FA02F9E5
:1013380049EA0A09C0F80890D0F8049029EA050596
:10134800456045680CFA03FC1FFA8CFC4CEA05055D
:101358004560CDE700234FF6FF72026003714371C9
:101368008371C371704700BF82B04FF4803301931B
:10137800019B0B430193019BC361C161019BC36145
:10138800C3690193C369019302B0704703691942A5
:101398000CBF002001207047006980B2704700BF71
:1013A800436919420CBF002001207047406980B290
:1013B800704700BF01837047418370470AB9418372
:1013C80070470183704700BF4161704743695940C6
:1013D80041617047CB0800EB830001F0070110B4AE
:1013E8008900046A0F238B4024EA03030362036A1B
:1013F8005DF8044B8A4013430362704708B53A4BC3
:10140800984221D0394B984228D0394B984231D054
:10141800384B98423AD0384B984243D0374B984291
:101428004CD0374B984253D0364B984200D008BD29
:101438004FF000400121FFF7EFFD4FF00040002181
:10144800BDE80840FFF7E8BD10200121FFF7F0FDD7
:1014580010200021BDE80840FFF7EABD4FF4003036
:101468000121FFF7D9FD4FF400300021BDE8084005
:10147800FFF7D2BD4FF480200121FFF7CDFD4FF4D7
:1014880080200021BDE80840FFF7C6BD4FF40020CA
:101498000121FFF7C1FD4FF400200021BDE80840FD
:1014A800FFF7BABD4FF480100121FFF7B5FD4FF4E7
:1014B80080100021BDE80840FFF7AEBD20200121C3
:1014C800FFF7B6FD20200021BDE80840FFF7B0BDBA
:1014D8004FF080400121FFF79FFD4FF08040002131
:1014E800BDE80840FFF798BD0010014000440040E7
:1014F80000480040004C00400050004000140140EB
:1015080000780040007C0040F0B50D46018AEF8865
:101518002E89AB88AA8989B2044621F440513943FF
:1015280068892182A189334389B2034321F4B051E8
:1015380021F00C019BB20B43A381A38A9BB223F435
:101548004073134385B0A3826846FFF74FFC1D4BD9
:101558009C4229D003F580639C4225D0029BA28936
:101568002968A08912B2002A03EB8303B4BF49009B
:10157800890003EB8303B3FBF1F2134900B2A1FB2B
:1015880002535B096425002803FB15224FEA031365
:101598000CDB12013232A1FB0251C1F343110B43A0
:1015A8009BB2238105B0F0BD039BD8E7D20032324D
:1015B800A1FB0201C1F342110B439BB2238105B089
:1015C800F0BD00BF001001401F85EB5100234FF410
:1015D80016510C22016042818380C380038183817C
:1015E800704700BF30B40A884D888C88038AC98840
:1015F8002A4322430A439BB292B223F470631343F3
:10160800038230BC704700BF00230380438083807F
:10161800C3807047838929B923F400531B041B0C2A
:10162800838170479BB243F400538381704700BFA6
:10163800038B03F47F430383038B9BB2194301831A
:10164800704700BF838919B9C3F30E0383817047BC
:101658006FEA43436FEA53439BB28381704700BFED
:10166800838A29B923F400631B041B0C8382704707
:101678009BB243F400638382704700BFC1F3080143
:10168800818070478088C0F308007047038A23F080
:101698000F031B041B0C0382038A9BB219430182AC
:1016A800704700BF838929B923F002031B041B0C70
:1016B800838170479BB243F002038381704700BF68
:1016C800838923F400631B041B0C838183899BB2E9
:1016D80019438181704700BF038A23F020031B044C
:1016E8001B0C0382038A9BB219430182704700BF17
:1016F800038A29B923F480431B041B0C0382704717
:101708009BB243F480430382704700BF83899BB236
:1017180043F0010383817047838A29B923F00803C2
:101728001B041B0C838270479BB243F0080383821F
:10173800704700BF038BDBB20383038B9BB243EA82
:1017480001210183704700BF838A29B923F0200350
:101758001B041B0C838270479BB243F020038382D7
:10176800704700BF838A29B923F010031B041B0CA0
:10177800838270479BB243F010038382704700BF97
:10178800838A23F004031B041B0C8382838A9BB285
:1017980019438182704700BF838A29B923F0020365
:1017A8001B041B0C838270479BB243F002038382A5
:1017B800704700BF838A9BB21AB923EA010181826C
:1017C800704719438182704701F01F0310B4C1F3B9
:1017D80042110124A14204FA03F310D002290CBFDC
:1017E8001030143004682AB924EA030303605DF852
:1017F800044B7047234303605DF8044B70470C307B
:10180800F0E700BF038819420CBF00200120704791
:10181800C94389B20180704710B4C1F3421301244F
:1018280001F01F02A34204FA02F217D0022B0CBFE8
:10183800038A838A9BB21340028892B253B1090A81
:10184800012303FA01F111420CBF002001205DF8C9
:10185800044B704718465DF8044B704783899BB268
:101868001340E9E7090A012303FA01F1C94389B2E0
:101878000180704770B582B0FFF778F8FEF7B2FCC8
:10188800FEF7C8FC412300930121032204230F48DB
:101898000F4C104EFEF73AFDFFF7FEF8254621786B
:1018A80001E002290DD00C4800F022F80B48FFF7A0
:1018B80041F821780129F4D1FEF740FD2978022961
:1018C800F1D13078FEF78EFDE9E700BF882C0008DB
:1018D8001D0100201C010020A42C0008400D03005D
:1018E80002440346934202D003F8011BFAE770470B
:1018F8000FB40A4B13B51C6824B1A36913B9204669
:1019080000F0AAFC05AB2046A168049A019300F0F8
:101918002FF802B0BDE8104004B07047EC0000207A
:101928009368013B002B10B5936005DA9469A342D4
:1019380008DBCBB20A2B05D01368581C106019704D
:10194800C8B210BDBDE8104000F0C2BAF8B50546EF
:101958000E461446D718BC4208D0284614F8011B76
:101968003246FFF7DDFF431CF5D100E00020F8BD4B
:101978002DE9F0439DB00D4617460393064618B16E
:1019880083690BB900F068FC734B9D4201D17568FF
:1019980008E0724B9D4201D1B56803E0704B9D424F
:1019A80008BFF568AB8918070AD52B6943B100232E
:1019B800099320238DF8293030238DF82A3038E018
:1019C8003046294600F0D8FA0028F0D04FF0FF3012
:1019D800BFE0039A111D12680391002A70DB079279
:1019E800013423782E2B7DD05E4F21783846032290
:1019F80000F0EAFC30B1C71B049B4020B840034309
:101A080004930134217858488DF828100622671C61
:101A180000F0DAFC002800F08A80544B002B7DD1BE
:101A2800039B073323F0070308330393099B4344BD
:101A380009933B461C4613F8012B1AB9B4EB070966
:101A48000ED002E0252AF5D1F8E7304629463A4675
:101A58004B46FFF77BFF013076D0099B4B44099337
:101A68002378002B70D000234FF0FF3204930793A4
:101A7800059206938DF853301A9304F101094C46E8
:101A88003B4F21783846052200F09EFC09F10109F8
:101A9800049B28B1C71B0120B84003430493EEE719
:101AA800D90644BF20228DF853201A0744BF2B22A1
:101AB8008DF8532022782A2A8BD0079B214605E0EF
:101AC800524243F002030792049389E70C4601311E
:101AD8002278303A092A03D80A2000FB0323F5E7C5
:101AE80007937EE763782A2B0AD1039B1A1D1B688C
:101AF8000392002B04F10204B8BF4FF0FF330BE050
:101B0800611C00230C4601312278303A092A03D897
:101B18000A2000FB0323F5E7059365E703AB009371
:101B2800304604A92A46134BAFF3008007E003AB05
:101B38000093304604A92A460E4B00F08FF8B0F106
:101B4800FF3F80467FF472AFAB895B063FF53EAF3F
:101B580009981DB0BDE8F083E82C0008082D00089E
:101B6800282D0008BA2C0008BE2C00080000000030
:101B7800B42C0008551900082DE9F84315461F46EE
:101B88008A680B69DDF820809A42A8BF13462B604B
:101B980091F8432006460C460AB101332B602368AE
:101BA800990602D52B6802332B60236813F00609C7
:101BB8001DD094F843302268003318BF01239206E1
:101BC8001FD5E1185A1C302081F84300224494F8AC
:101BD800451082F84310023313E03046394604F1C9
:101BE80019020123C047013007D009F10109E26851
:101BF8002B68D31A9945F0DBDBE74FF0FF30BDE8DF
:101C0800F8833046394604F14302C0470130F4D026
:101C180023682A68E16803F00603042B08BFC2EBB7
:101C280001052369A2680CBF25EAE57500259A42DB
:101C3800C4BFC3EB0203ED184FF00009A9450ADA47
:101C48003046394604F11A020123C0470130D4D086
:101C580009F10109F2E70020BDE8F8832DE9FF4703
:101C68000E7E0C9D6E2E80460C4691469A4601F1DA
:101C7800430000F0A58011D8632E22D009D8002E89
:101C880000F0AF80582E40F0BF8081F845607B4A55
:101C98004FE0642E1ED0692E1CD0B5E0732E00F0E4
:101CA800A48009D86F2E2BD0702E40F0AD800B6821
:101CB80043F020030B6038E0752E21D0782E34D005
:101CC800A2E02B681A1D1B682A6001F1420781F8FF
:101CD80042309DE022682B6812F0800F03D01A1D55
:101CE8002A601D6805E05106F9D51A1D2A60B3F966
:101CF8000050002D39DA2D236D4284F8433034E04A
:101D080022682B6812F0800F03D01A1D2A601D6804
:101D180004E05206F9D51A1D2A601D88237E574A09
:101D28006F2B14BF0A2308231BE07823544A84F836
:101D380045302368296813F0800F01F104062E60EE
:101D480001D00D6802E05F06FBD50D88DE0744BFB1
:101D580043F0200323601DB9236823F02003236088
:101D68001023002184F8431001E0444A0A236668DE
:101D7800A660002E03DB216821F00401216005B96B
:101D88006EB104F14201B5FBF3F603FB16550F469D
:101D9800555D01F801593546002EF4D100E007469B
:101DA800082B0AD12368DD0707D5626823699A42A0
:101DB80003DC302307F8013C013FC01B20612CE005
:101DC80009682B68626911F0800F04D0191D296019
:101DD8001B681A6005E04906F8D5191D29601B68BB
:101DE8001A8000232361074617E02B681A1D2A6012
:101DF8001F68384600F02DFC63682061984288BF50
:101E080023612369636005E004F1420784F84260B6
:101E180001232361002384F84330CDF800A0404615
:101E2800214603AA4B46FFF7A7FE013002D14FF027
:101E3800FF301FE0404649463A462369D047013003
:101E4800F5D023689B0705D4E068039B9842B8BF88
:101E580018460FE00025E268039BD31A9D42F3DA87
:101E68004046494604F119020123D0470130DED02B
:101E78000135F0E704B0BDE8F08700BFC52C0008C5
:101E8800D62C000810B59AB04FF402740091049152
:101E98006FF00041029105914FF6FF71ADF80E10F9
:101EA8006946ADF80C4000F039FC009B00221A701E
:101EB8001AB010BD30B51346044A05460C461068E2
:101EC80029462246BDE83040FFF7DCBFEC00002081
:101ED80070B50E461446054618B183690BB900F073
:101EE800BBF9224B9C4201D16C6808E0204B9C4214
:101EF80001D1AC6803E01F4B9C4208BFEC68A369A2
:101F0800A360A3891A0709D523693BB1236920680F
:101F1800C01A63699842F6B20FDB08E028462146EA
:101F280000F02AF80028F1D04FF0FF3070BD2846A5
:101F3800214600F013F90028F6D1A368013BA360FD
:101F480023685A1C22601E7063690130984204D0CD
:101F5800A389DB0707D50A2E05D12846214600F0BC
:101F6800FDF80028E0D1304670BD00BFE82C00081D
:101F7800082D0008282D0008324B70B51D6806464C
:101F88000C4625B1AB6913B9284600F065F92E4B0C
:101F98009C4201D16C6808E02C4B9C4201D1AC6892
:101FA80003E02B4B9C4208BFEC68A28993B2190747
:101FB80020D4DD0605D4092342F040023360A28113
:101FC8003BE0580712D5616B41B104F144039942D3
:101FD80002D0304600F02CFA00236363A38923F073
:101FE8002403A3810023636023692360A38943F04A
:101FF8000803A38123694BB9A38903F42073B3F5BC
:10200800007F03D03046214600F090F9A38913F0F1
:10201800010205D00022A26062695242A26103E077
:10202800990758BF6269A26022694AB903F0800023
:1020380080B230B143F04003A3814FF0FF3070BD50
:10204800002070BDEC000020E82C0008082D0008D6
:10205800282D00088A892DE9F041054610070C460D
:1020680057D44B68002B02DC0B6C002B18DDE66A9A
:10207800B6B102F48052002392B22F682B600AB1E5
:10208800626D10E0216A28460123B047411C0246D0
:1020980009D12B683BB11D2B01D0162B46D12F60DF
:1020A8000020BDE8F081A3895B0705D56368D21AD3
:1020B800636B0BB1236CD21AE66A216A28460023A7
:1020C800B047461CA28905D12B681BB11D2B01D036
:1020D800162B19D100236360D1042369236004D52A
:1020E800421C01D12B6803B96065616B2F60002920
:1020F800D6D004F14403994202D0284600F098F95A
:1021080000206063BDE8F08142F04002A281BDE892
:10211800F0810E69002EC3D00B680E60C6EB030871
:1021280093070CBF4B6900238B6012E0A38943F02F
:102138004003A3814FF0FF30BDE8F081A76A216A10
:10214800284632464346B8470028EFDD0644C0EB30
:102158000808B8F1000FF1DCA2E7000038B50B69F8
:1021680005460C46DBB118B183690BB900F074F869
:102178000C4B9C4201D16C6808E00B4B9C4201D18E
:10218800AC6803E0094B9C4208BFEC68B4F90C301A
:102198002BB128462146BDE83840FFF75BBF002039
:1021A80038BD00BFE82C0008082D0008282D0008BD
:1021B800F8B5074600F1480494B1A5686668013E81
:1021C8000CD4AB89012B07D9B5F90E30013303D0F4
:1021D80038462946FFF7C2FF6835F0E72468EBE781
:1021E800F8BD0000002310B5044603604360836017
:1021F80081814366C28103614361836119465C3012
:102208000822FFF76DFB054B6362054BA362054B84
:10221800E362054B2462236310BD00BFD525000887
:10222800F72500082F2600085326000870B54B1E16
:1022380068255D430E4605F1740100F03DF904463A
:1022480040B1002180E842000C30A06005F168022E
:10225800FFF746FB204670BD836910B5044633BBC3
:102268008364C3640365124B124A1B6882629842F6
:1022780004BF0123836100F01FF86060204600F06E
:102288001BF8A060204600F017F80421E060002247
:102298006068FFF7A7FFA06809210122FFF7A2FFE6
:1022A800E06812210222FFF79DFF0123A36110BD00
:1022B8004C2D0008B9210008F8B51B4B1E68B369FE
:1022C800074613B93046FFF7C7FF4836B468736846
:1022D800013B04D4B4F90C5075B16834F8E733689D
:1022E8002BB938460421FFF7A1FF306008B13668E2
:1022F800ECE70C233B60F8BD4FF6FF73E381012345
:10230800A38165662560A560656025616561A56135
:1023180004F15C0029460822FFF7E2FA6563A56329
:10232800A564E5642046F8BD4C2D0008F0B58B89FE
:102338009E0791B005460C4626D4B1F90E10002927
:1023480009DAA38913F0800F4FF0000714BF402665
:102358004FF480660DE001AA00F0F0FA0028F0DBE7
:10236800029F07F47047B7F500514F424F414FF4B1
:1023780080662846314600F09FF860B9A3899A051F
:102388001DD443F00203A38104F1470323602361B2
:102398000123636113E00B4BAB62A389206043F018
:1023A8008003A381206166614FB12846B4F90E10FD
:1023B80000F0D6FA18B1A38943F00103A38111B044
:1023C800F0BD00BFB921000810B5C9B2024490425F
:1023D800034606D01C788C4200F10100F7D118465C
:1023E80010BD002010BD10B50023934203D0CC5C73
:1023F800C4540133F9E710BD814270B501D30023FD
:102408000EE08C18A042FAD28518134613F1FF3358
:1024180005D3514266182944F65CCE54F6E770BDE0
:10242800934203D0CC5CC4540133F9E770BD00007B
:1024380030B500293CD051F8042C0B1F1D49002A47
:10244800B8BF9B180A680C4612B95A600B6030BDB9
:1024580093420DD219685818904203D15A58114422
:10246800426819605A60236030BD994203D80A4611
:1024780051680029F9D1146815199D420AD11B68C1
:102488002344D0188842136012D1086803441360AB
:102498004B680CE002D90C23036030BD18681C1887
:1024A8008C4203D10C684968204418605960536015
:1024B80030BD00BF0001002070B5CD1C25F003051C
:1024C80008350C2D38BF0C25002D06463FDB8D4204
:1024D8003DD3214B1C6818462146A1B10B685B1BF4
:1024E8000ED40B2B03D90B60CC18CD501FE08C42B7
:1024F80002D1626802601AE04B6863600C4616E01D
:102508000C464968E9E7154C23681BB9304600F0CA
:102518004DF820602946304600F048F8431C014633
:1025280015D0C41C24F0030484420AD1256004F1A8
:102538000B00231D20F00700C31A0BD05A42E250AB
:1025480070BD3046611A00F031F80130EED10C232D
:102558003360002070BD00BF00010020FC00002097
:10256800F8B5064614460D4621B91146BDE8F840AF
:10257800FFF7A2BF1AB9FFF75BFF2046F8BD00F0CE
:1025880011FAA0420ED230462146FFF795FF0746C2
:1025980050B129462246FFF726FF30462946FFF765
:1025A80047FF01E02846F8BD3846F8BD38B5064C67
:1025B800002305460846236000F038FA431C02D180
:1025C800236803B12B6038BD4401002010B50C46C8
:1025D800B1F90E1000F0F0F9002803DB636D034435
:1025E800636510BDA38923F48053A38110BD2DE931
:1025F800F0411D468B89DB0507460C46164605D576
:10260800B1F90E100022022300F0BAF9A389B4F937
:102618000E1023F48053A381384632462B46BDE87A
:10262800F04100F069B910B50C46B1F90E1000F090
:10263800A7F9431CA38903D123F48053A38110BDB8
:1026480043F48053A381606510BDB1F90E1000F00A
:1026580065B9034613F8012B002AFBD1181A013873
:1026680070472DE9F0478D68AB4281460C4692468B
:102678001F4643D38B8913F4906F3DD026680969B0
:10268800C1EB06086669022206EB460696FBF2F6DF
:1026980008F101023A44964238BF16465B050FD549
:1026A8003146FFF709FF054698B121694246FFF711
:1026B8009AFEA38923F4906343F08003A38113E077
:1026C8003246FFF74DFF054670B948462169FFF7C6
:1026D800AFFE0C23C9F80030A38943F04003A3815F
:1026E8004FF0FF30BDE8F087256166614544C8EBCF
:1026F80006062560A6603D46AF4200D23D462A4602
:1027080020685146FFF778FEA3685B1BA360236827
:102718001D4425600020BDE8F08700002DE9F04346
:102728009DB0074603938B891C060D4616460CD5AB
:102738000B6953B94021FFF7BFFE2860286110B923
:102748000C233B60C8E040236B61002309932023DE
:102758008DF8293030238DF82A3033461C4613F87B
:10276800012B1AB9B4EB06090FD002E0252AF5D1DE
:10277800F8E73846294632464B46FFF772FF0130E4
:1027880000F0A580099B4B4409932378002B00F0A7
:102798009E8000234FF0FF3204930793059206931F
:1027A8008DF853301A9304F101094C464D4E2178A7
:1027B80030460522FFF708FE09F10109049B28B1FC
:1027C800861B0120B04003430493EEE7D90644BFBB
:1027D80020228DF853201A0744BF2B228DF853204E
:1027E80022782A2A02D0079B21460EE0039A111D5F
:1027F80012680391002A01DB079204E0524243F079
:1028080002030792049301340AE00C46013122784E
:10281800303A092A03D80A2000FB0323F5E7079377
:1028280023782E2B1AD163782A2B0AD1039B1A1DE1
:102838001B680392002B04F10204B8BF4FF0FF336A
:102848000BE0611C00230C4601312278303A092A3A
:1028580003D80A2000FB0323F5E70593224E2178CD
:1028680030460322FFF7B0FD30B1861B049B4020A1
:10287800B04003430493013421781C488DF8281094
:102888000622661CFFF7A0FD88B1194B33B9039BDC
:10289800073323F007030833039314E003AB0093D3
:1028A800384604A92A46134BAFF3008007E003AB70
:1028B8000093384604A92A460E4BFFF7CFF9B0F12A
:1028C800FF3F804603D0099B4344099345E7AB8902
:1028D8005B0601D4099801E04FF0FF301DB0BDE858
:1028E800F08300BFB42C0008BA2C0008BE2C0008E6
:1028F800000000006B26000838B5074C054600208C
:102908002060084611461A4600F0AAF8431C02D176
:10291800236803B12B6038BD4401002038B5064C4C
:10292800002305460846236000F058F8431C02D1EE
:10293800236803B12B6038BD4401002038B5074C2B
:102948000023054608461146236000F04FF8431C53
:1029580002D1236803B12B6038BD00BF44010020B9
:1029680038B5064C002305460846236000F046F8B3
:10297800431C02D1236803B12B6038BD44010020F9
:1029880038B5074C054600202060084611461A460F
:1029980000F03CF8431C02D1236803B12B6038BD1A
:1029A8004401002051F8040C002802DA04390B58BD
:1029B800184404387047000038B5074C0546002015
:1029C8002060084611461A4600F028F8431C02D138
:1029D800236803B12B6038BD44010020024B582204
:1029E8001A604FF0FF30704744010020024B582214
:1029F8001A604FF0FF30704744010020024B582204
:102A08001A600020704700BF44010020024B582282
:102A18001A604FF0FF30704744010020024B5822E3
:102A28001A604FF0FF30704744010020094A1368CC
:102A380063B118446946884202D810601846704746
:102A4800054B0C221A604FF0FF307047034B1360A0
:102A5800EFE700BF040100204401002048010020E6
:102A6800024B58221A604FF0FF3070474401002093
:102A780000002110422063308440A550C660E770F2
:102A8800088129914AA16BB18CC1ADD1CEE1EFF19A
:102A98003112100273325222B5529442F772D66242
:102AA800399318837BB35AA3BDD39CC3FFF3DEE3EA
:102AB8006224433420040114E664C774A444855492
:102AC8006AA54BB528850995EEE5CFF5ACC58DD53A
:102AD8005336722611163006D776F6669556B446E2
:102AE8005BB77AA719973887DFF7FEE79DD7BCC78A
:102AF800C448E5588668A778400861180228233832
:102B0800CCC9EDD98EE9AFF9488969990AA92BB9D9
:102B1800F55AD44AB77A966A711A500A333A122A81
:102B2800FDDBDCCBBFFB9EEB799B588B3BBB1AAB29
:102B3800A66C877CE44CC55C222C033C600C411CD1
:102B4800AEED8FFDECCDCDDD2AAD0BBD688D499D79
:102B5800977EB66ED55EF44E133E322E511E700E21
:102B68009FFFBEEFDDDFFCCF1BBF3AAF599F788FC9
:102B78008891A981CAB1EBA10CD12DC14EF16FE1A9
:102B88008010A100C230E3200450254046706760E1
:102B9800B9839893FBA3DAB33DC31CD37FE35EF3F9
:102BA800B1029012F322D232354214527762567231
:102BB800EAB5CBA5A89589856EF54FE52CD50DC549
:102BC800E234C324A0148104667447642454054481
:102BD800DBA7FAB79987B8975FE77EF71DC73CD799
:102BE800D326F2369106B0165766767615463456D1
:102BF8004CD96DC90EF92FE9C899E9898AB9ABA9E9
:102C08004458654806782768C018E1088238A32820
:102C18007DCB5CDB3FEB1EFBF98BD89BBBAB9ABB38
:102C2800754A545A376A167AF10AD01AB32A923A70
:102C38002EFD0FED6CDD4DCDAABD8BADE89DC98D88
:102C4800267C076C645C454CA23C832CE01CC10CC0
:102C58001FEF3EFF5DCF7CDF9BAFBABFD98FF89FD8
:102C6800176E367E554E745E932EB23ED10EF01E10
:102C780025303478000000002C0000002564000096
:102C880048656C6C6F20576F726C64212025642036
:102C980025642025642025630A0D0000636D6420E7
:102CA8006973206E6F772025640A0000232D302B6E
:102CB8002000686C4C006566674546470030313235
:102CC800333435363738394142434445460030318C
:102CD80032333435363738396162636465660000EB
:102CE80000000000000000000000000000000000DC
:102CF80000000000000000000000000000000000CC
:102D080000000000000000000000000000000000BB
:102D180000000000000000000000000000000000AB
:102D2800000000000000000000000000000000009B
:102D3800000000000000000000000000000000008B
:082D4800430000008C00002094
:102D5000000000000000000001020304060708094B
:102D6000007A030A020001000800040002000100CA
:102D70000400080020001000400080002000100027
:102D80000100020000400008000180000002000471
:102D900000100008002000400040002000010080DA
:102DA0000004000200080240000002400008024047
:102DB00000040240000C02400010024000040240E7
:102DC000000C024000040240000C02400000000021
:102DD00001020304010203040607080900000000C1
:102DE000E82C0008082D0008282D0008000000002D
:102DF000000000000000000000000000482D000856
:102E000000000000000000000000000000000000C2
:102E100000000000000000000000000000000000B2
:102E200000000000000000000000000000000000A2
:102E30000000000000000000000000008C000020E6
:0400000508000541A9
:00000001FF
